:100000000C9443010C946B010C946B010C946B01E8
:100010000C946B010C946B010C946B010C946B01B0
:100020000C946B010C946B010C94510F0C94BA0F4F
:100030000C946B010C946B010C946B010C946B0190
:100040000C946B010C946B010C946B010C946B0180
:100050000C946B010C946B010C946B010C94D713F2
:100060000C946B010C946B010C946B010C946B0160
:100070000C946B010C946B010C946B010C946B0150
:100080000C946B010C946B010C946B010C946B0140
:100090000C944E0B0C946B010C946B010C946B0143
:1000A0000C946B010C946B010C946B013C093F099F
:1000B0002E093209380960096009600943094709B6
:1000C0004B095109550960095B0941542B464143CD
:1000D000544F5259524553455400415445002D2D1B
:1000E0002D2D2D2D2D2D2D2D2D2D2D2D2D2D004159
:1000F0005449002D2D2D2D2D2D2D2D2D2D2D2D2D1A
:100100002D2D2D0041542B4741504445564E414D15
:10011000453D4C6F6B69204D69646920436F6E7477
:10012000726F6C6C65720041545A0041545A004120
:1001300054493D340041542B424C454D49444945B6
:100140004E3D310041542B424C454D494449454EAA
:100150000041542B424C454D4944495458000A3CF7
:100160002D20000A3C2D2000000000002400270064
:100170002A002D00300000000000250028002B0080
:100180002E003100000000002300260029002C0072
:100190002F00040404040403040502020202040301
:1001A0000202020206060606060604040202020411
:1001B0000404080201104080401020408040800864
:1001C00002040180402010020110801020404020D5
:1001D0000000000200090F0000030401000C0000F1
:1001E00000000000000000000000000000000041CE
:1001F000542B4556454E5444495341424C453D309D
:10020000780041542B4556454E54454E41424C458D
:100210003D307800080B00020202010009040000D2
:10022000010202000005240010010524010101045F
:100230002402060524060001070581031000400979
:10024000040100020A000000070502024000000746
:100250000583024000000403090412010002EF02BA
:1002600001409A230C800001010203014164616690
:100270007275697400466561746865722033327501
:100280003400FB19EC1911241FBECFEFDAE0DEBFFA
:10029000CDBF14E0A0E0B1E0E8E4FEE302C00590C9
:1002A0000D92A83DB107D9F727E0A8EDB4E001C051
:1002B0001D92AF32B207E1F711E0C2E4D1E004C011
:1002C0002197FE010E94401BC134D107C9F70E944B
:1002D00021140C94171F0C940000FC01EB54FF4FE9
:1002E0001782168211861086138612860895623050
:1002F00030F4FC012485261721F0648702C080E0D9
:10030000089581E0089508958CBD9DBD08950895D8
:1003100080E090E00895CF92DF92EF92FF920F93EA
:100320001F93CF93DF931F92CDB7DEB7FC013485C7
:1003300021E0231B248721E3231B29838C010B54F9
:100340001F4FBE016F5F7F4FC8010E94B81286E049
:10035000E82EF12C99E6C92E94E0D92EB601C801F9
:100360000E94B812882341F0F8018481C80ED11C84
:10037000F1E0EF1AF10891F70F90DF91CF911F9103
:100380000F91FF90EF90DF90CF900895CF92DF9282
:10039000EF92FF92CF93DF93EC010E94CB13C880C2
:1003A000D980EA80FB80DC01CB018C199D09AE0964
:1003B000BF0921E0CC80DD80EE80FF808C159D059B
:1003C000AE05BF0508F420E0822FDF91CF91FF90AA
:1003D000EF90DF90CF9008952F923F924F925F92CF
:1003E0006F927F928F929F92AF92BF92CF92DF9245
:1003F000EF92FF920F931F93CF93DF93CDB7DEB7AA
:10040000A1970FB6F894DEBF0FBECDBF8C015C0183
:1004100085EBA80EB11CFE013196FE8FED8FC80151
:10042000815A9F4F98A38F8F180191E6290E311C96
:100430006801EEE5CE0ED11C90E6892E912CF501D7
:100440002681378182819381821B930B409708F428
:1004500078C084E1ED8DFE8D11928A95E9F7F8015F
:100460004480558066807780440C551C661C771C40
:100470000E94CB136D8B7E8B8F8B988F498E5A8EFB
:100480006B8E7C8EEF8DF8A180810E94900C892B61
:1004900041F4CE0145960E94C601882399F320E0DD
:1004A000B4C0F10180818F3F31F480916805909153
:1004B00069050E94840160E0F60180810E94B90C08
:1004C000F80144805580668077800E94CB136D8B45
:1004D0007E8B8F8B988F498E5A8E6B8E7C8ECE0141
:1004E00045960E94C601811128C06FEFC8010E9485
:1004F000F31289838E3F11F08F3F69F461E0F601BA
:1005000080810E94B90CC4010197F1F760E0F60107
:1005100080810E94B90C89818E5F823000F30DC00A
:10052000803889F0CE0145960E94C60181110BC02A
:100530006FEFC8010E94F31289838981803281F7AD
:1005400002C021E062C0CE0145960E94C601811121
:1005500013C08FEF9FEFAFEF8A839B83AC8343E0A1
:1005600050E0BE016E5F7F4FC8010E9451138A8127
:100570002B819981903811F4F12C1DC090E0922BC1
:100580009A500397C8F78C818F77E82EF12CF1E110
:10059000EF16F1048CF7A7016FEF70E0CE0105961E
:1005A0000E94601DA701BE016B5F7F4FC8010E94C2
:1005B0005113FF24F39461E0F60180810E94B90C8D
:1005C0002F2DFF2011F18C818F7721F48C8187FDF5
:1005D00036CF1BC0E82EF12C2E01F5E04F0E511C3A
:1005E000612C712CB201C50129A30E94B81229A166
:1005F000882361F3FFEF6F1A7F0AF5018481480EAB
:10060000511C6E147F0410F7EDCF822FA1960FB608
:10061000F894DEBF0FBECDBFDF91CF911F910F9138
:10062000FF90EF90DF90CF90BF90AF909F908F9012
:100630007F906F905F904F903F902F9008958F9292
:100640009F92AF92BF92CF92DF92EF92FF920F9361
:100650001F93CF93DF93CDB7DEB76E970FB6F894A5
:10066000DEBF0FBECDBF7C016A01122F01110BC08E
:10067000DC01ED91FC910680F781E02D6D8F7E8F7E
:1006800009957E8D6D8D80E189837B836A838C8162
:100690008078912F9F77892B8C83103111F4017012
:1006A00001C000E08C8100FB87F98C83C114D10468
:1006B00049F0112339F0412F50E0B601CE010596E3
:1006C0000E94571DF701EF59FF4F80818F3F31F492
:1006D00080916805909169050E9484016701BEE5DB
:1006E000CB0ED11C60E0F60180810E94B90CD701CD
:1006F00014968D909D90AD90BC9017970E94CB134F
:100700006D8B7E8B8F8B988F898E9A8EAB8EBC8EE5
:1007100080E6A82EB12C6981C7010E94F3128E3F9A
:1007200031F4CE0145960E94C601882391F0CE0196
:1007300045960E94C60101E00827C9F0412F50E00C
:100740004D5F5F4FBE016E5F7F4FC7010E94511327
:100750000EC061E0D6018C910E94B90CC5010197D1
:10076000F1F760E0F60180810E94B90CD4CF61E01E
:10077000F60180810E94B90C802F6E960FB6F89416
:10078000DEBF0FBECDBFDF91CF911F910F91FF90C4
:10079000EF90DF90CF90BF90AF909F908F90089593
:1007A000CF92DF92EF92FF920F93CF93DF931F923E
:1007B000CDB7DEB76C017C0185EBE80EF11CF701CB
:1007C00086819781892BB1F0448150E02285338561
:1007D000429FC001439F900D529F900D1124608154
:1007E0007181680F791FCE0101960E94571D898182
:1007F00090E020C0F601848581110AC000E020E06D
:1008000040E050E062E07AE0C6010E941F0308C0A9
:10081000F601E15AFF4F80810E94900C892B19F05C
:10082000C6010E94EC01F70186819781892B61F650
:100830008FEF9FEF0F90DF91CF910F91FF90EF908F
:10084000DF90CF900895CF92DF92EF92FF920F93B7
:10085000CF93DF931F92CDB7DEB76C017C0185EBA0
:10086000E80EF11CF70186819781892B49F1868179
:100870009781892B11F1448150E022853385429F75
:10088000C001439F900D529F900D11246081718192
:10089000680F791FCE0101960E94571DF7018285CE
:1008A00093850196628173810E942C1B93878287B6
:1008B00086819781019797838683898190E021C003
:1008C000F601848581110AC000E020E040E050E09C
:1008D00062E07AE0C6010E941F0308C0F601E15AF7
:1008E000FF4F80810E94900C892B19F0C6010E9455
:1008F000EC01F70186819781892B09F0BCCF8FEF3E
:100900009FEF0F90DF91CF910F91FF90EF90DF90CD
:10091000CF900895EF92FF920F93CF93DF937C01D6
:1009200025EBE20EF11CF70126813781232B81F4A0
:10093000FC012485211114C0EC0100E040E050E0EE
:1009400062E07AE00E941F03CE010E94EC01F701F1
:1009500086819781DF91CF910F91FF90EF9008955D
:10096000FC01E15AFF4F8081DF91CF910F91FF9001
:10097000EF900C94900C8F929F92AF92BF92CF9277
:10098000DF92EF92FF920F93CF93DF935C017B0195
:10099000EA01DC011C968C91882329F0C60FD71F31
:1009A000C12CD12C39C04330510590F043E050E0C8
:1009B00060E774E0C7010E944A1D892B49F4C330E7
:1009C000D10541F0F70183818D3021F08A3011F09B
:1009D0006E011AC0C5010E948B011CC04601F1E1E5
:1009E000CF16D10418F080E1882E912CC818D908B0
:1009F00001E009F400E0282DA70161E07AE0C501DB
:100A00000E941F03E80CF91CC114D10439F7C50179
:100A10000E94EC01CE0112C0EC16FD0671F0D70168
:100A20006D917D01D501ED91FC910190F081E02D5A
:100A3000C5010995C80ED91EEFCFC601DF91CF9130
:100A40000F91FF90EF90DF90CF90BF90AF909F906D
:100A50008F900895AF92BF92CF92DF92EF92FF9264
:100A60000F93CF93DF9300D0CDB7DEB77C016983BE
:100A7000FC01848581110EC000E021E0AE014F5FD2
:100A80005F4F61E07AE0C7010E941F03C7010E9427
:100A9000EC0152C0898197012C583F4F6901F9013F
:100AA0008D3011F08A3001F520812223E1F15701C8
:100AB000F4E6AF0EB11C43E050E060E774E0C5011E
:100AC0002A830E944A1D2A81892B21F4C7010E9492
:100AD0008B0107C000E0A50160E07AE0C7010E9439
:100AE0001F03F60110821FC09081903191F401E044
:100AF00020E15701F4E6AF0EB11CA50160E07AE0F9
:100B0000C7010E941F038981F501808381E0F601FE
:100B100009C021E0290FF6012083F701E90FF11D3B
:100B2000EC59FF4F8083F7018585882329F069817F
:100B300088E195E00E94FC1181E090E00F900F9019
:100B4000DF91CF910F91FF90EF90DF90CF90BF900A
:100B5000AF900895EF92FF920F931F93CF93DF937F
:100B6000CDB7DEB7C154D1090FB6F894DEBF0FBEC2
:100B7000CDBF8C01FC018585882331F06EE571E0E5
:100B800088E195E00E9403127801FEE0EF0EF11C6F
:100B9000F80144815581BE016F5F7F4FC8010E94FB
:100BA0006109892BC9F060E673E0CE0101960E94CD
:100BB000671D892B79F063E673E0CE0101960E94F0
:100BC000671D892B49F0BE016F5F7F4FC7010E94EF
:100BD000701DDECF81E001C080E0CF5BDF4F0FB63C
:100BE000F894DEBF0FBECDBFDF91CF911F910F9163
:100BF000FF90EF900895BC0188E195E00C94891274
:100C00001F93CF93DF93CDB7DEB728970FB6F89435
:100C1000DEBF0FBECDBF162F64E774E0CE01019694
:100C200028874F830E943C0FCE0101960E94FB054E
:100C3000CE0101960E941D0F6BE774E0CE01019674
:100C40000E943C0FCE0101960E94FB05CE01019649
:100C50000E941D0F812F90E00E94F70969E973E05F
:100C6000CE0101960E943C0FCE0101960E94FB0529
:100C7000CE0101960E941D0F4F81842F90E00E94AB
:100C8000F70969E973E0CE0101960E943C0FCE019D
:100C900001960E94FB05CE0101960E941D0F28853A
:100CA000822F90E00E94F70969E973E0CE01019676
:100CB0000E943C0FCE0101960E94FB05CE010196D9
:100CC0000E941D0F6FE674E0CE0101960E943C0F5A
:100CD000CE0101960E94FB05CE0101960E941D0FD8
:100CE00028960FB6F894DEBF0FBECDBFDF91CF912F
:100CF0001F910895CF93DF9300D000D000D0CDB7DF
:100D0000DEB76FE774E0CE0101960E943C0FCE0182
:100D100001960E94FB05CE0101960E941D0F1092C4
:100D2000DB0426960FB6F894DEBF0FBECDBFDF9171
:100D3000CF910895CF93DF9300D000D000D0CDB7EE
:100D4000DEB781E08093DB046CE874E0CE010196AD
:100D50000E943C0FCE0101960E94FB05CE01019638
:100D60000E941D0F68EE73E080E090E00E949113F6
:100D700026960FB6F894DEBF0FBECDBFDF91CF91A0
:100D80000895CF93DF9300D000D000D0CDB7DEB769
:100D90001A8219821C821B821E821D82FC016081C4
:100DA00071816115710531F044815581CE01019643
:100DB0000E94DD0ECE0101960E94FB05CE01019638
:100DC0000E941D0FFFCFFC0144815581BC01625F71
:100DD0007F4F0C9461092F923F924F925F926F92D6
:100DE0007F928F929F92AF92BF92CF92DF92EF92BB
:100DF000FF920F931F93CF93DF9300D000D01F92E9
:100E0000CDB7DEB79D838C836B015B834A83522E03
:100E1000DC011C96BC91B983B11108C0DC01ED91D5
:100E2000FC910684F785E02D61E00995B6018C817F
:100E30009D810E94031238018701C12CD12C412CC5
:100E4000252C312CB1E02B1A3108451409F4D4C0FB
:100E5000411005C06DE38C819D810E94FC11F3015E
:100E6000E190F1903F01C70188278115F4E09F07C9
:100E700009F47FC0A8F48115A2E09A0789F18115D1
:100E8000B3E09B0709F47BC08115914009F0A5C030
:100E9000D8016D917C918C819D810E9427129DC00B
:100EA0008115F6E09F0709F486C040F4811595404E
:100EB00009F093C0F801608171818BC08115B7E0A2
:100EC0009B0709F481C08115984009F086C0D801BC
:100ED0004D915D916D917C9155276627772772C062
:100EE000F80180809180FF24F1E0EF1AF108EFEF24
:100EF000EE16FE0609F471C02FEF821A920AF40171
:100F00003197B080AC81BD81ED91FC910190F08171
:100F1000E02D8B2D82958F708A3010F067E301C031
:100F200060E3680F8C819D810995AC81BD81ED9155
:100F3000FC910190F081E02D2B2D2F702A3010F0C4
:100F400067E301C060E3620F8C819D810995E11424
:100F5000F10459F0AC81BD81ED91FC9111970190A4
:100F6000F081E02D6DE2CD010995B1E0EB1AF108B9
:100F7000BECFD8014D915D916D917C9123C0F80158
:100F800080809180A280B380B7FE0DC06DE28C811D
:100F90009D810E94FC1144275527BA01481959091F
:100FA0006A097B090FC02AE0B501A4018C819D81EB
:100FB0000E943C1212C0D8014D915D916D917C91BF
:100FC000662777272AE0F2CFF8016081062E000C11
:100FD000770B8C819D810E94C109C214D30429F032
:100FE0006CE28C819D810E94FC114394FFEFCF1A2B
:100FF000DF0A0C5F1F4F29CF8C819D810E948512D3
:101000008A819B81892B29F1AC81BD811D968C91B0
:10101000882331F063E671E088E195E00E940312D5
:101020008C819D810E94E306892B51F040E050E0C5
:1010300060E070E08C819D810E960E94771D03C058
:1010400060E070E0CB01EA81FB8160837183828381
:1010500093838C819D810E94AA05182FF981F1113B
:101060000BC0AC81BD81ED91FC9111970684F78591
:10107000E02D60E0CD010995812F0F900F900F902A
:101080000F900F90DF91CF911F910F91FF90EF90F4
:10109000DF90CF90BF90AF909F908F907F906F9098
:1010A0005F904F903F902F900895EF92FF920F9393
:1010B0001F93E12CF12C00E010E020E040E050E034
:1010C0000E94EB061F910F91FF90EF90089585ED20
:1010D0008093BC008091BC0084FDFCCF10920B0576
:1010E00008954091B206262F30E0240F311D2132A1
:1010F0003105DCF420910B052430C9F4FC0180E0BB
:1011000090E0861758F43091B2062191DC01A05787
:10111000B94FA30FB11D2C930196F3CF8091B20666
:10112000680F6093B20680E0089581E0089582E040
:1011300008950895E091E2048091E104E81730F405
:10114000F0E0E751FB4F808190E008958FEF9FEF33
:1011500008959091E2048091E104981750F4E92FEA
:10116000F0E0E751FB4F208130E09F5F9093E20475
:1011700002C02FEF3FEFC90108958091E10490E094
:101180002091E204821B91090895CF92DF92EF92A1
:10119000FF920F931F93CF93DF937C01262F972FFE
:1011A0008A018091E504882391F0C62FD72F6E0124
:1011B000C40ED51ECC15DD0571F06991D701ED91F6
:1011C000FC910190F081E02DC7010995F3CF642FC8
:1011D000822F0E947108C801DF91CF911F910F915A
:1011E000FF90EF90DF90CF900895CF93DF931F9201
:1011F000CDB7DEB769832091E5042223D1F0209199
:10120000E804203240F021E030E0FC013383228307
:1012100080E090E015C08091E604E82FF0E0E9520C
:10122000F94F998190838F5F8093E6048093E8045F
:1012300005C061E0CE0101960E94710881E090E056
:101240000F90DF91CF91089590E0FC013197EF303E
:10125000F105B0F5EA5AFF4F0C94401B80918000D5
:101260008F7703C0809180008F7D809380000895E8
:1012700080918000877FF9CF84B58F7702C084B5D5
:101280008F7D84BD0895809190008F7707C08091F5
:1012900090008F7D03C080919000877F80939000A5
:1012A00008958091C0008F7703C08091C0008F7D2A
:1012B0008093C00008958091C200877F8093C20010
:1012C0000895CF92DF92EF92FF920F931F93CF93E7
:1012D000DF937C016B018A01C0E0D0E001151105AC
:1012E00061F1D701ED91FC910084F185E02DC701FA
:1012F0000995892BC1F0D701ED91FC910284F3850A
:10130000E02DC70109958D3061F38A3019F42097DB
:1013100041F32AC0F601EC0FFD1F80832196C034F3
:10132000D105F8F221C001501109C1F261E070E06D
:1013300080E090E00E949113D1CFF601EC0FFD1FE9
:101340001082F7018585882391F0209781F0B601FE
:1013500088E195E00E942712C034D10540F488E16D
:1013600095E00E94851203C000E010E0B7CFCE01E7
:10137000DF91CF911F910F91FF90EF90DF90CF9071
:101380000895CF92DF92EF92FF920F931F93CF9326
:10139000DF936B01770FEE08FF08F7FE1BC0EC012F
:1013A0006DE20E94FC118C0144275527BA014C19AB
:1013B0005D096E097F092AE0CE010E943C12800F70
:1013C000911FDF91CF911F910F91FF90EF90DF90D0
:1013D000CF9008952AE0B701A601DF91CF911F9128
:1013E0000F91FF90EF90DF90CF900C943C12CF9331
:1013F000DF93AC01990F660B770B20E188E195E054
:101400000E943C12EC0188E195E00E9485128C0F4D
:101410009D1FDF91CF910895FF920F931F93CF935C
:10142000DF93EC01F62E042F1C85111107C0E88113
:10143000F9810684F785E02D61E00995F11003C07C
:101440006FEE71E002C062E072E0CE010E94031212
:1014500007FD0CC041E050E060E070E004C0440FC4
:10146000551F661F771F0A95D2F703C040E050E072
:10147000BA0120E1CE010E943C12CE010E948512E9
:10148000CE010E94AA0511110DC0E881F9810684E0
:10149000F785E02D60E0CE01DF91CF911F910F9194
:1014A000FF900994DF91CF911F910F91FF900895C4
:1014B00090910B059111FCCF91E090930B059093C7
:1014C0000A052FEF20931A0710921907260F209371
:1014D00018079093170790911707880F892B80930F
:1014E000170780910905813061F4109209058091F8
:1014F00017078093BB008091BC0083FDF8CF85EC7B
:1015000001C085EE8093BC0080910B058130E1F332
:1015100080911907861710F460911907A7EFB6E0BC
:1015200029EE34E0F9018E2F821B861718F48D9175
:101530008193F9CF862F0895382F2091E804909158
:10154000E704213208F049C080910B058111FCCFDE
:1015500042E040930B0530930A053FEF30931A07A2
:101560001092190720931807A7EDB6E047EF56E051
:10157000FA013E2F341B321718F43D913193F9CF05
:101580001092170720911707990F922B9093170726
:1015900090910905913061F4109209059091170717
:1015A0009093BB009091BC0093FDF8CF95EC01C0E7
:1015B00095EE9093BC0090910B059230E1F39091E1
:1015C0001A079F3F79F080911A07803241F080918D
:1015D0001A07803331F084E005C081E003C082E067
:1015E00001C083E01092E6041092E8041092E50432
:1015F0000895CF93C62F90916A0521E02093E504CA
:101600009093E7041092E6041092E804682F8CE0AF
:1016100095E00E94F5086C2F8CE095E00E94F5089B
:1016200081E0CF910C949C0AFC018091E40481112B
:1016300003C08FEF9FEF08959FB7F89482E08093E7
:10164000E9002091F20030E01216130614F421E0B4
:1016500030E02115310551F084E68093E304809158
:10166000F10080838091F200882319F09FBFC901A7
:1016700008958BE68093E800F9CF2FB7F89483E0C4
:101680008093E9009091E800892F807295FF04C053
:101690009091F20080E4891B2FBF08951F920F9252
:1016A0000FB60F9211242F933F934F935F936F9335
:1016B0007F938F939F93AF93BF93EF93FF9380910B
:1016C000B900887F803609F49CC068F5883209F437
:1016D0005BC090F4803109F454C038F4882309F4D5
:1016E000F6C0883009F44DC0F6C0883109F44CC00A
:1016F000803209F45DC0EFC0803409F468C048F45A
:10170000803309F455C0883309F0E5C080931A0787
:10171000D8C0803509F44FC0883509F45DC08834DD
:1017200009F0D9C0D6C0883909F4C7C0A8F48837F1
:1017300009F467C038F4883609F463C0803709F4C7
:1017400060C0C9C0883809F4B8C0803909F45FC0E6
:10175000803809F0C0C05BC0803B09F486C038F413
:10176000803A09F466C0883A09F47FC0B4C0803C6E
:1017700009F4A7C0883C09F4A4C0883B09F48AC0D6
:10178000AAC08091170710C090911907809118077F
:10179000981770F5E091190781E08E0F8093190773
:1017A000F0E0E950F94F80818093BB0085EC86C062
:1017B00080931A078EC0E091190781E08E0F809305
:1017C00019078091BB00F0E0E950F94F80839091B8
:1017D0001907809118076EC0E091190781E08E0FFC
:1017E000809319078091BB00F0E0E950F94F8083A6
:1017F00080910A0581116DC081E08093090584EA1A
:1018000061C083E080930B051092D606CFCF809104
:10181000D606803208F051C0E091D60681E08E0FE6
:101820008093D6068091BB00F0E0EA54F94F8083A4
:10183000BDCF85EC8093BC0010920B058091D6063D
:10184000803230F4E091D606F0E0EA54F94F10828D
:101850006091D60670E0E091B406F091B50686EB93
:1018600096E009951092D60636C084E080930B0569
:101870001092B3061092B206E091B006F091B10654
:1018800009958091B206811105C081E08093B2066E
:1018900010929006E091B30681E08E0F8093B3061C
:1018A000F0E0E057F94F80818093BB009091B30640
:1018B0008091B206981708F479CF85E88093BC0030
:1018C0000AC085EC8093BC0010920B0504C01092F6
:1018D0001A070E946708FF91EF91BF91AF919F9106
:1018E0008F917F916F915F914F913F912F910F90C9
:1018F0000FBE0F901F9018958091880681110DC022
:1019000082E08093840684E08093850610928706A7
:101910001092860681E08093880684E896E0089518
:10192000CF93DF93282F30E0F901E053FE4F8491ED
:10193000F901EF54FE4FD491F901EE56FE4FC491D8
:10194000CC2391F081110E942409EC2FF0E0EE0FDE
:10195000FF1FEC57FE4FA591B491EC91ED2381E070
:1019600090E021F480E002C080E090E0DF91CF9130
:1019700008951F93CF93DF93282F30E0F901E053B0
:10198000FE4F8491F901EF54FE4FD491F901EE56C8
:10199000FE4FC491CC23C9F0162F81110E94240957
:1019A000EC2FF0E0EE0FFF1FEA58FE4FA591B49127
:1019B0008FB7F894111105C09C91ED2FE095E923A4
:1019C00002C0EC91ED2BEC938FBFDF91CF911F9173
:1019D0000895CF93DF9390E0FC01EF54FE4F2491E4
:1019E000FC01EE56FE4F8491882361F190E0880F50
:1019F000991FFC01E859FE4FC591D491FC01EA58AA
:101A0000FE4FA591B491611109C09FB7F8948881E8
:101A1000209582238883EC912E230BC0623061F4E1
:101A20009FB7F8943881822F809583238883EC9127
:101A30002E2B2C939FBF06C08FB7F894E8812E2BD6
:101A400028838FBFDF91CF91089540911D0750915A
:101A50001E0720911B0730911C0742175307B4F44F
:101A60009091E8009570E1F39091E80092FD19C023
:101A70008093F10080911D0790911E0701968F734E
:101A80009927892B19F48EEF8093E80080911D0728
:101A900090911E07019690931E0780931D0781E089
:101AA000089580E00895DF92EF92FF920F931F93C5
:101AB000CF93DF93D82E8A017B01E40EF51EEB0154
:101AC000CE15DF0571F0D7FE03C0FE01849101C081
:101AD00088810E94250D21968111F2CF8FEF9FEF13
:101AE00001C0C801DF91CF911F910F91FF90EF903E
:101AF000DF900895CF92DF92EF92FF920F931F93A2
:101B0000CF93DF936C017A018B01C0E0D0E0CE155A
:101B1000DF0589F0D8016D918D01D601ED91FC9121
:101B20000190F081E02DC6010995892B11F47E0109
:101B300002C02196ECCFC701DF91CF911F910F9189
:101B4000FF90EF90DF90CF900895CF93DF931F9297
:101B5000CDB7DEB76983DC01ED91FC910280F381A2
:101B6000E02D41E050E0BE016F5F7F4F09950F907F
:101B7000DF91CF91089583E08093E9008091F20096
:101B8000882319F08AE38093E8000895FC01848596
:101B9000958597FD0BC09FB7F89482E08093E9008C
:101BA0008091F2009FBF90E0019608959FB7F8944E
:101BB00082E08093E9008091F2009FBF90E0089559
:101BC0000E943D1D0F931F93CF93DF931F92CDB7BC
:101BD000DEB782E0898342E450E064E172E080E8AD
:101BE0000E94530D0E947C0CDC0112960D911C91F9
:101BF00013970115110569F0D801ED91FC91028050
:101C0000F381E02DBE016F5F7F4FC801099597FFFB
:101C100007C089810F90DF91CF911F910F91089597
:101C2000F80100851185E5CF8F929F92AF92BF9208
:101C3000CF92DF92EF92FF920F931F93CF93DF9398
:101C40005C016B017A0180910B01882309F459C072
:101C50008091E404882309F454C08091D90480FF62
:101C600005C08091E00082608093E000E70110E011
:101C70000AEF83E0882E9AE3992E2097D1F10E94F3
:101C80003D0B811109C00150E1F161E070E080E09D
:101C900090E00E949113F1CF282F30E0C217D307B4
:101CA0000CF48C2F4FB7F8948092E9009091E800E3
:101CB00095FF1DC0282F30E0C21BD30BF601982FD3
:101CC000915020F081918093F100FACFC20ED31E83
:101CD000112319F09092E80009C08091E80085FD79
:101CE00006C09092E80011E0209709F010E04FBF85
:101CF000C4CF1111C4CF84E680931F071E141F04A4
:101D000044F081E090E0F5019383828380E090E0ED
:101D100001C0C701DF91CF911F910F91FF90EF900C
:101D2000DF90CF90BF90AF909F908F9008950E94CA
:101D30003D0B90E00895CF93DF931F92CDB7DEB7B0
:101D4000FC018485958597FD05C02FEF3FEF358712
:101D500024870BC0CE0101960E94140B019719F441
:101D6000898190E002C08FEF9FEF0F90DF91CF91BC
:101D700008950F931F93CF93DF931F92CDB7DEB7D4
:101D80008C01FC018485958597FF0EC0CE010196DC
:101D90000E94140B019719F4298130E002C02FEF43
:101DA0003FEFF80135872487F801848595850F90EA
:101DB000DF91CF911F910F910895EF92FF920F93B2
:101DC0001F93CF93DF93EC017B018A018881998176
:101DD000009729F02A813B8124173507F8F4B801D0
:101DE0006F5F7F4F0E94731C009759F0998388831F
:101DF0001B830A832C813D81232B81F4FC011082FB
:101E00000DC088819981009711F00E94DB1B198217
:101E100018821D821C821B821A8207C01D830C83BC
:101E2000B701888199810E94701DCE01DF91CF9109
:101E30001F910F91FF90EF900895FC018081918197
:101E40000C94DB1BFB01DC0111961C921E92139675
:101E50001C921E92129715961C921E92149786172A
:101E6000970749F0608171816115710521F0448106
:101E700055810C94DD0E0895FC01118210821382AD
:101E80001282158214826115710551F0FB010190D7
:101E90000020E9F73197AF01461B570B0C94DD0E7C
:101EA00008951F920F920FB60F9211248F939F9354
:101EB0008091E1009091E100937F9093E10083FF96
:101EC0000FC01092E90091E09093EB001092EC00AB
:101ED00092E39093ED001092E40498E09093F00068
:101EE00082FF1CC093E09093E9009091F200992347
:101EF00019F09AE39093E80090911F07992329F035
:101F000090911F07915090931F079091E30499239C
:101F100029F09091E30491509093E30484FF10C062
:101F20008091E2008E7E81608093E2008091E100EA
:101F30008F7E8093E1008091D9048E7E806111C0F4
:101F400080FF11C08091E2008E7E80618093E2006C
:101F50008091E1008E7E8093E1008091D9048E7E95
:101F600081608093D9049F918F910F900FBE0F9045
:101F70001F9018951F920F920FB60F921124CF92B7
:101F8000DF92EF92FF920F931F932F933F934F9304
:101F90005F936F937F938F939F93AF93BF93EF93D1
:101FA000FF93CF93DF93CDB7DEB76C97DEBFCDBF86
:101FB0001092E9008091E80083FFFFC1FE01759651
:101FC000DE2ECF2E88E08E0F8E1729F09091F10033
:101FD00090833196F9CF84E68093E30482EF809377
:101FE000E8008D8987FF05C09091E80090FFFCCF45
:101FF00003C09EEF9093E800982F907609F0C5C03B
:102000009E892F89188D91110CC0803829F48091F8
:10201000DA048093F10002C01092F1001092F100F6
:102020004FC1422F50E0512B913051F4811148C1E2
:102030004130510509F044C18091DA048D7F0BC015
:10204000933061F481113CC14130510509F038C130
:102050008091DA0482608093DA0432C1953041F4D1
:102060008091E80080FFFCCF20682093E30028C126
:10207000963009F05EC0EB8CFC8C1092E900109257
:102080001E0710921D07123091F510921C07109236
:102090001B070E94E20D99E0BE016F5F7F4FDB01DD
:1020A000E92F1D92EA95E9F799831A8391E09E83BF
:1020B00090EA98879AEF998720911D0730911E0723
:1020C000275F3F4F3C832B838D831092E900109252
:1020D0001E0710921D07F0921C07E0921B0749E0B3
:1020E00050E080E00E94530D0E94E20DE9C0F092A2
:1020F0001C07E0921B070E947C0CDC011296ED90FD
:10210000FC901397E114F10409F4C7C0D701ED91D5
:10211000FC910480F581E02D6D2D7C2DC701099582
:10212000009719F00CF0CCC0CFC0F701E084F18427
:10213000E9CF973009F4C8C0983021F481E080934A
:10214000F100BEC0993009F0BBC0837009F0BCC07B
:10215000E7E5F2E081E021E036E39081992361F048
:102160008093E9002093EB0091919093EC003093E1
:10217000ED008F5F873089F78EE78093EA00109239
:10218000EA008F898093E4049BC08B8D9C8D109214
:10219000E90010921E0710921D0790931C07809370
:1021A0001B07898D81115FC08E899D89913A59F4F1
:1021B000813209F089C047E050E064E071E080E0DE
:1021C0000E94530D7DC0913209F07EC0833289F4A4
:1021D000888D90E0982F88272F89822BA0E0B0E08F
:1021E0008093000190930101A0930201B093030139
:1021F00067C08032B1F48091E80082FFFCCFE4E058
:10220000F1E087E08E0F8E1729F09091F100908316
:102210003196F9CF84E68093E3048BEF8093E80056
:1022200006C0823209F04CC08F8980930B018091E7
:10223000D804882319F0EEEFFAE002C0E0E0F8E0FD
:102240008091040190910501A0910601B0910701D0
:10225000803B9440A105B10509F07AC080910B0143
:1022600080FF92C075C00E947C0CDC0112960D911B
:102270001C9113970115110539F1D801ED91FC91CD
:102280000190F081E02D6D2D7C2DC8010995811103
:1022900017C0F80100851185EDCF113009F44EC04B
:1022A000133091F48F89882309F445C0823081F47A
:1022B00040E86CE085E792E00E94EF1A882321F065
:1022C0008EEF8093E80079C081E28093EB0075C0C7
:1022D000813029F440E868E08CE692E0EDCF83306D
:1022E00099F70E947C0CDC011296ED90FC901397FC
:1022F0008E010F5F1F4F6801E114F10479F0D701DF
:10230000ED91FC910680F781E02DB801C701099598
:10231000080F111DF701E084F184EECFD8011C9263
:10232000F60101900020E9F73197BF016C197D0992
:1023300040E0C601C1CF66E572E002C06AE572E026
:102340006115710509F2FB01449150E080E838CF36
:102350000FB6F894A8958091600088618093600022
:10236000109260000FBEA895EE3F2AE0F20739F008
:102370008091FE0A9091FF0A91838083A1CF1092F1
:10238000FF0A1092FE0A9CCFEE3F8AE0F80731F078
:10239000808191819093FF0A8093FE0A87E797E7F7
:1023A000918380839BE088E10FB6F894A895809391
:1023B00060000FBE9093600083CF6C960FB6F894C8
:1023C000DEBF0FBECDBFDF91CF91FF91EF91BF91E7
:1023D000AF919F918F917F916F915F914F913F91BD
:1023E0002F911F910F91FF90EF90DF90CF900F9062
:1023F0000FBE0F901F901895DC01ED91FC9101909C
:10240000F081E02D0994EF92FF920F931F93CF93E9
:10241000DF938C017B01C0E0D0E0F701EC0FFD1FE2
:102420006491662361F0D801ED91FC910190F081F7
:10243000E02DC8010995892B11F02196EECFCE0130
:10244000DF91CF911F910F91FF90EF90089561154B
:10245000710579F0FB0101900020E9F73197AF0198
:10246000461B570BDC01ED91FC910280F381E02DBE
:10247000099480E090E008954F925F926F927F926E
:10248000EF92FF920F931F93CF93DF93CDB7DEB7F9
:10249000A1970FB6F894DEBF0FBECDBF7C01FA0145
:1024A000CB0119A2223008F42AE08E010F5D1F4FE4
:1024B000422E512C612C712CBF01A30192010E946C
:1024C000A41EF901CA01015011096A3014F4605DBB
:1024D00001C0695CD8016C93232B242B252B61F759
:1024E000B801C7010E942712A1960FB6F894DEBF6B
:1024F0000FBECDBFDF91CF911F910F91FF90EF9055
:102500007F906F905F904F9008956DE674E00C940B
:1025100027120F931F93CF93DF93EC01E881F9818A
:10252000DB0114964D915C9115976D917C91028021
:10253000F381E02D09958C01CE010E948512800F58
:10254000911FDF91CF911F910F9108950F931F93CA
:10255000CF93DF93EC010E9403128C01CE010E9405
:102560008512800F911FDF91CF911F910F910895D8
:10257000CF93DF93EC012E813F818A819B812817C5
:10258000390719F48D81882359F14C8150E0288551
:102590003985429FC001439F900D529F900D112499
:1025A00028813981820F931F0E94571D8885998544
:1025B0002A813B810196B9010E942C1B998788874B
:1025C0008E819F818217930729F4888599859B873F
:1025D0008A8705C08E819F8101969F838E8381E0CB
:1025E000DF91CF9108958F929F92AF92BF92CF9239
:1025F000DF92EF92FF920F931F93CF93DF937C01B3
:1026000021E6E20EF11CF70120812F3F39F46EBD67
:1026100000000DB407FEFDCF8EB536C0D62F27E0E3
:10262000822E912CC0E0CC24C394D12C5C01F2E624
:10263000AF0EB11C8C010D591F4FCC0F60E0F7019C
:1026400080810E94B90CB601082C01C0660F0A9463
:10265000EAF76D23F50180810E94B90C61E0F70172
:1026600080810E94B90CF80180810E94900C892B16
:1026700009F0C160F1E08F1A9108F8F660E0F70107
:1026800080810E94B90C8C2FDF91CF911F910F9107
:10269000FF90EF90DF90CF90BF90AF909F908F9082
:1026A0000895EF92FF920F931F93CF93DF937C01D6
:1026B000EB018B01040F151FC017D10731F06881A2
:1026C000C7010E94F3128993F7CFDF91CF911F9139
:1026D0000F91FF90EF9008953FB7F89480912507F0
:1026E00090912607A0912707B091280726B5A89BAF
:1026F00005C02F3F19F00196A11DB11D3FBFBA2F94
:10270000A92F982F8827820F911DA11DB11DBC01F3
:10271000CD0143E0660F771F881F991F4A95D1F7B7
:1027200008958F929F92AF92BF92CF92DF92EF92D5
:10273000FF926B017C010E946C134B015C01C11480
:10274000D104E104F104F1F00E946C13DC01CB012F
:1027500088199909AA09BB09883E9340A105B105CA
:1027600070F321E0C21AD108E108F10888EE880E62
:1027700083E0981EA11CB11CC114D104E104F10432
:1027800019F7DDCFFF90EF90DF90CF90BF90AF9023
:102790009F908F9008952FB7F894609121077091C2
:1027A000220780912307909124072FBF08951F923D
:1027B0000F920FB60F9211242F933F938F939F93F5
:1027C000AF93BF938091210790912207A091230797
:1027D000B09124073091200726E0230F2D3720F4F5
:1027E0000296A11DB11D05C029E8230F0396A11D66
:1027F000B11D209320078093210790932207A09377
:102800002307B09324078091250790912607A09174
:102810002707B09128070196A11DB11D80932507B8
:1028200090932607A0932707B0932807BF91AF91F5
:102830009F918F913F912F910F900FBE0F901F90FE
:102840001895CF93DF93CDB7DEB76A970FB6F8949C
:10285000DEBF0FBECDBF789484B5826084BD84B5E1
:10286000816084BD85B5826085BD85B5816085BD8B
:1028700080916E00816080936E0010928100809143
:1028800081008260809381008091810081608093CB
:102890008100809180008160809380008091910010
:1028A000826080939100809191008160809391007B
:1028B000809190008160809390008091C10084603D
:1028C0008093C1008091C10082608093C10080919B
:1028D000C10081608093C1008091C30081608093BA
:1028E000C3008091C00082608093C0008091C200CC
:1028F00081608093C20080917A00846080937A0026
:1029000080917A00826080937A0080917A008E7F35
:1029100080937A0080917A00806880937A00109288
:10292000E4041092DA041092D9048091D7008160F7
:102930008093D70080EA8093D80089B58F7E89BDC7
:1029400089B5826089BD09B400FEFDCF61E070E009
:1029500080E090E00E9491138091D8008F7C80618C
:102960008093D8008091E000807F8093E000809188
:10297000E1008E7E8093E1008DE08093E200EEEF37
:10298000FFE7859194918B3F9C4D19F481E08093F2
:10299000D8046EEC73E0CE0101960E943C0FCE018C
:1029A00001960E94FB05CE0101960E941D0F64EF67
:1029B00071E080E090E00E9491138FEF9FEF909381
:1029C0002505809324056DE572E0CE0101960E94F5
:1029D0003C0FCE0101960E94FB05CE0101960E949C
:1029E0001D0F6FE772E0CE0101960E943C0FCE01F1
:1029F00001960E94FB05CE0101960E941D0F67EA19
:102A000072E0CE0101960E943C0FCE0101960E9419
:102A1000FB05CE0101960E941D0F81E08093D00539
:102A200060E0809122060E94E90C61E0809121061D
:102A30000E94E90C61E0809121060E94B90C80910E
:102A400024068F3F09F034C01FB7F8948091DC044E
:102A5000811127C0E3EAF1E08491E2ECF1E0949186
:102A6000E82FF0E0EE0FFF1FE859FE4FA591B4915B
:102A7000EC91E92321F461E081E10E94B90C61E06D
:102A800081E10E94E90C8CB580618CBD8CB58064BD
:102A90008CBD61E08FE00E94E90C61E080E10E9462
:102AA000E90C8091DC048F5F8093DC041FBF12C0AF
:102AB00061E00E94E90C60E0809124060E94B90C5C
:102AC00060E0809126060E94E90C61E08091250675
:102AD0000E94E90C00E020E040E050E06FEE7EEB69
:102AE00083EC95E00E941F03182F8091230687FD39
:102AF00019C061E00E94E90C61E0809123060E9408
:102B0000B90C60E0809123060E94B90C6AE070E085
:102B100080E090E00E94911361E0809123060E9482
:102B2000B90C11E00E94CB13609313067093140646
:102B3000809315069093160668EE73E080E090E0AF
:102B40000E949113111103C065EC72E045C06DE065
:102B500073E0CE0101960E943C0FCE0101960E94C7
:102B6000FB05CE0101960E941D0F61E173E0CE01CD
:102B700001960E943C0FCE0101960E94FB05CE01FA
:102B800001960E941D0F6AEC70E083EC95E00E94B4
:102B9000A61283EC95E00E94AA05182F0E94CB1381
:102BA000609313067093140680931506909316068F
:102BB00068EE73E080E090E00E949113E091C3051D
:102BC000F091C4050680F781E02D83EC95E009952E
:102BD00011110AC06EE273E0CE0101960E943C0F13
:102BE000CE0101960E94C10680E093E098878F8312
:102BF00019821A821B821C826E0137E0C30ED11C1F
:102C0000CE0101967C01860121E040E050E06AEDB2
:102C100070E083EC95E00E94EB0665E473E0C70189
:102C20000E943C0FC7010E94FB05C7010E941D0FB7
:102C30001091CF050091D0051092D00563EF70E0A0
:102C400088E195E00E94A61211110BC0E091C30526
:102C5000F091C4050684F785E02D61E083EC95E0F2
:102C600009956FEE70E083EC95E00E94A61283EC6C
:102C700095E00E94E306892BD9F060E673E081EDD0
:102C800095E00E94671D892B99F063E673E081ED62
:102C900095E00E94671D892B59F061ED75E088E190
:102CA00095E00E94271288E195E00E948512DFCF0F
:102CB00011110BC0E091C305F091C4050684F7859E
:102CC000E02D60E083EC95E009956EED70E088E121
:102CD00095E00E94A6120093D00564E071E083ECB9
:102CE00095E00E94550881110EC069E673E0CE019F
:102CF00001960E943C0FCE0101960E94FB05CE0179
:102D000001960E941D0F8AE996E090931A0680931F
:102D1000190640E061E083EC95E00E940C0A8AE726
:102D200096E0909318068093170641E061E083ECEB
:102D300095E00E940C0A63E873E0CE0101960E94C0
:102D40003C0FCE0101960E94FB05CE0101960E9428
:102D50001D0F80916B0590916C05FC01E65AFF4FA9
:102D600020E036E0318320834AE061E00E940C0AD3
:102D70006BE973E0CE0101960E943C0FCE010196F3
:102D80000E94FB05CE0101960E941D0F00916B056C
:102D900010916C05D8011C96BC901C97B11008C00E
:102DA000ED91FC910684F785E02D61E0C80109955D
:102DB0006FE271E0C8010E94A612C8010E94E306FA
:102DC00069EA73E0C8010E960E94671D4C01C801B4
:102DD0000E94AA05B11009C0D801ED91FC910684AA
:102DE000F785E02D60E0C801099597FC79C019824C
:102DF0001A821B821C82E12CF12C00E010E020E002
:102E0000AE014F5F5F4F64E471E080916B0590917C
:102E10006C050E94EB06982E882309F461C0898115
:102E20009A81AB81BC81892B8A2B8B2B11F0B92C19
:102E300055C065E371E080916B0590916C050E942F
:102E40005508B82E882309F44BC000916B051091EA
:102E50006C0535E0A32E6BE271E0C8010E945508B5
:102E6000811125C0AA94A110F6CF62E370E080E042
:102E700090E00E949113D801ED91FC910684F785B2
:102E8000E02D61E0C801099562E370E080E090E028
:102E90000E94911325E0A22E67E271E0C8010E9412
:102EA0005508811104C0AA94A110F6CFC0CF0E948A
:102EB000CB13F801E05BFF4F6083718382839383C0
:102EC00068EE73E080E090E00E949113D801ED91EC
:102ED000FC910680F781E02DC8010995B11003C06F
:102EE0006FEA73E079CE1092D0051092E20410924E
:102EF000E1041092E6041092E80410920B0511E030
:102F000010930A051092090561E082E00E94B90C55
:102F100061E083E00E94B90C8091B9008E7F8093BC
:102F2000B9008091B9008D7F8093B90080E28093D1
:102F3000B80085E48093BC008AE580936A0563E667
:102F400080E80E94F90A61E070E080E090E00E9471
:102F5000911360E08EE50E94F90A80916A05109352
:102F6000E5048093E7041092E6041092E8046DE50E
:102F70008CE095E00E94F50880E00E949C0A61E0E8
:102F800080916A050E94580A1092E2048093E1043D
:102F90008130A9F78CE095E00E94A908843209F0FD
:102FA0000CC211E46CE0812F0E94F90A66E081E016
:102FB000810F0E94F90A1E5F1935A1F761E08BE2CB
:102FC0000E94F90A61E08CE20E94F90A6EE08DE24B
:102FD0000E94F90A60E08EE20E94F90A61E08FE245
:102FE0000E94F90A65E080E30E94F90A61E081E34A
:102FF0000E94F90A60E082E30E94F90A60E083E33C
:103000000E94F90A60E084E30E94F90A60E085E327
:103010000E94F90A60E08BE50E94F90A60E18CE504
:103020000E94F90A60E28DE50E94F90A6FE88EE5D8
:103030000E94F90A65EC73E0CE0101960E943C0FF4
:10304000CE0101960E94FB05CE0101960E941D0F44
:1030500016010D2C000C440855088091DB048823D0
:1030600009F4A3C164ED73E083EC95E00E9427129C
:1030700083EC95E00E94851283EC95E00E94E306C4
:1030800061ED75E0C6010E943C0F83EC95E00E9463
:10309000AA058B859C85892B41F060E673E08F81C2
:1030A00098850E94671D892B71F161EE73E0CE0156
:1030B00001960E943C0FCE0101960E94FB05CE01B5
:1030C00001960E941D0FB601CE0101960E94220FAB
:1030D000CE0101960E94FB05CE0101960E941D0FB4
:1030E0008F8198859C8B8B8B89859A859E8B8D8B08
:1030F0008B859C85988F8F8B18861F821A861986E0
:103100001C861B8606C06DEE73E0CE0143960E94BE
:103110003C0FC6010E941D0F8F89988D892B49F0A5
:103120006DEE73E08B899C890E94671D892B09F4E1
:103130007CC0BE016D5E7F4FCE010D960E94220FB6
:1031400089899A89892B09F46CC062EF73E08D85B7
:103150009E850E94671D892B09F063C067EF73E0AD
:10316000CE0101960E943C0FCE0101960E94FB0504
:10317000CE0101960E941D0F6FE074E0C6010E940F
:103180003C0F0F81188501151105D9F560E274E037
:10319000CE0101960E943C0FCE0101960E94FB05D4
:1031A000CE0101960E941D0FB601CE0101960E942C
:1031B000220FCE0101960E94FB05CE0101960E94CE
:1031C0001D0F6BE274E083EC95E00E942712B601BC
:1031D00083EC95E00E94891283EC95E00E94AA0599
:1031E00081111CC069E374E0CE0101960E943C0F7E
:1031F000CE0101960E94FB05CE0101960E941D0F93
:103200000DC0D8018C91882309F2082E000C990B6F
:103210000E94421DF80181938F01F3CFC6010E94E5
:103220001D0FCE010D960E941D0FCE0143960E94E8
:103230001D0F80916A0591E09093E5048093E70467
:103240001092E6041092E80460E08CE095E00E94A1
:10325000F50880E00E949C0A62E080916A050E9465
:10326000580A1092E2048093E1048230A9F78CE0BE
:1032700095E00E94A9088C018CE095E00E94A908C5
:103280008A8F198EE98DFA8D0E2B1F2B1F701093CC
:10329000E0040093DF049DE6892E95E0992EA12C91
:1032A000B12C66246394712C0A2C02C0660C771C26
:1032B0000A94E2F78091DF049091E004862197213F
:1032C000892B61F18091DD049091DE0486219721A4
:1032D000892B21F5F7E0AF16B10400F5D4018C91EC
:1032E000B0E9BF838887E4E6E98780916B05909118
:1032F0006C0523E032E03E872D8729823A824B829B
:103300005C82DE0111967D018E01035F1F4F21E07B
:1033100040E050E061E571E00E94EB068091DF043F
:103320009091E00486219721892B61F58091DD043D
:103330009091DE0468227922672821F1B7E0AB166C
:10334000B10400F5F4018081F0E8FF83888724E66A
:10335000298780916B0590916C05A3E0B2E0BE8750
:10336000AD8729823A824B825C82FE0131967F01D1
:103370008E01035F1F4F21E040E050E061E571E006
:103380000E94EB06FFEFAF1ABF0A22E0820E911CEB
:103390003CE0A316B10409F084CF8091DF04909142
:1033A000E0049093DE048093DD0480E090E0892BBC
:1033B00009F453CE0E94000050CE69E474E0CE01BF
:1033C00001960E943C0FCE0101960E94FB05CE01A2
:1033D00001960E941D0FFFCFCF93DF93C3ECD5E082
:1033E0002697CE010E941D0F85E0CB37D807C1F785
:1033F000DF91CF910895CF93DF93ECE0F5E0138256
:10340000128288EE93E0A0E0B0E084839583A683E7
:10341000B7832AE131E031832083E8E1F5E01382CC
:10342000128284839583A683B7838CE291E0918393
:1034300080838FEF9FEF95878487E8E6F5E080E54E
:10344000808381E08183C3ECD5E01B821A828C8764
:103450001D864AEF50E060E070E04C835D836E8330
:103460007F83109213061092140610921506109284
:103470001606109218061092170610921A0610924D
:10348000190610921C0610921B0610921E0610922E
:103490001D061092200610921F062EE331E039839C
:1034A000288328E336E0309379062093780620E4D9
:1034B00030E030937B0620937A0680937C068093DD
:1034C0007D06109283061092820610928106109259
:1034D000800610927F0610927E0683E0809312068B
:1034E00088E08093210687E08093220686E080931F
:1034F00023068FEF8093240680932506809326066B
:103500001092370663EA74E08BE795E00E943C0F67
:1035100065EA74E081E895E00E943C0F6DE074E09C
:1035200087E895E00E943C0F6DEA74E08DE895E035
:103530000E943C0F65EB74E083E995E00E943C0F2C
:1035400067EB74E089E995E00E943C0F69EB74E059
:103550008FE995E00E943C0F61EC74E085EA95E00C
:103560000E943C0F63EC74E08BEA95E00E943C0FF4
:103570006BEC74E081EB95E00E943C0F6DEC74E025
:1035800087EB95E00E943C0F65ED74E08DEB95E0D4
:103590000E943C0FEDE6F5E08FE490E0918380839C
:1035A0008BE490E0938382838CE490E09583848322
:1035B00088E490E09783868384E490E09187808715
:1035C00081E490E09387828785E490E09587848703
:1035D000D0936C05C0936B05DF91CF910895CF9286
:1035E000DF92EF92FF920F931F93CF93DF931F927F
:1035F000CDB7DEB7182F062FE42E862F880F8E5FEB
:1036000099830E94250D83E00E94250DF12EC12E85
:103610009981D92E8C2D8F19801798F4F601E7FE29
:1036200002C0849101C080810E94250D182F80E086
:103630000E94250D8123FFEFCF1ADF0A8111EACF07
:1036400001C081E00F90DF91CF911F910F91FF900A
:10365000EF90DF90CF900895AA1BBB1B51E107C0EC
:10366000AA1FBB1FA617B70710F0A61BB70B881F12
:10367000991F5A95A9F780959095BC01CD010895A1
:10368000EE0FFF1F0590F491E02D0994CF93DF9387
:103690008230910510F482E090E0E0912B07F091E8
:1036A0002C0720E030E0C0E0D0E0309711F14081FD
:1036B000518148175907C0F04817590761F48281B2
:1036C0009381209719F09B838A832BC090932C07BA
:1036D00080932B0726C02115310519F04217530797
:1036E00018F49A01BE01DF01EF010280F381E02DA1
:1036F000DCCF2115310509F1281B390B24303105A8
:1037000090F412968D919C9113976115710521F09B
:10371000FB019383828304C090932C0780932B0733
:10372000FD01329644C0FD01E20FF31F8193919396
:10373000225031092D933C933AC0209129073091B2
:103740002A07232B41F420910E0130910F01309371
:103750002A072093290720910C0130910D01211592
:10376000310541F42DB73EB7409110015091110140
:10377000241B350BE0912907F0912A07E217F30784
:10378000A0F42E1B3F0B2817390778F0AC014E5FD1
:103790005F4F2417350748F04E0F5F1F50932A07DD
:1037A000409329078193919302C0E0E0F0E0CF01BC
:1037B000DF91CF9108950F931F93CF93DF930097DD
:1037C00009F48CC0FC0132971382128200912B07FE
:1037D00010912C070115110581F420813181820F90
:1037E000931F2091290730912A072817390779F567
:1037F000F0932A07E093290771C0D80140E050E018
:10380000AE17BF0750F412962D913C911397AD015E
:103810002115310509F1D901F3CF9D01DA01338377
:10382000228360817181860F971F8217930769F445
:10383000EC0128813981260F371F2E5F3F4F3183DE
:1038400020838A819B8193838283452B29F4F09383
:103850002C07E0932B0742C01396FC93EE9312972C
:10386000ED01499159919E01240F351FE217F3078D
:1038700071F480819181840F951F029611969C931B
:103880008E938281938113969C938E931297E0E09E
:10389000F0E0D80112968D919C911397009719F042
:1038A000F8018C01F6CF8D919C9198012E5F3F4FCE
:1038B000820F931F2091290730912A072817390773
:1038C00069F4309729F410922C0710922B0702C04C
:1038D0001382128210932A0700932907DF91CF9158
:1038E0001F910F910895A0E0B0E0E9E7FCE10C948E
:1038F000D51EEC01009721F4CB010E94461BB8C0F5
:10390000FC01E60FF71F9C0122503109E217F30773
:1039100008F4ACC0D9010D911C9111970617170737
:10392000B0F00530110508F49FC0C8010497861750
:10393000970708F499C002501109061B170B019351
:1039400011936D937C93CF010E94DB1B8DC05B01B3
:10395000A01AB10A4C01800E911EA0912B07B091C4
:103960002C0740E050E0E12CF12C109709F44AC0FC
:10397000A815B905D1F56D907C901197630182E08F
:10398000C80ED11CCA14DB0480F1A3014A195B09DB
:103990006A0182E0C80ED11C1296BC901297139651
:1039A000AC91B5E0CB16D10440F0B282A383518331
:1039B0004083D9016D937C930AC00E5F1F4FC301F2
:1039C000800F911FF90191838083EB2DFA2FE11471
:1039D000F10431F0D7011396FC93EE93129744C093
:1039E000F0932C07E0932B073FC08D919C9111978A
:1039F0004817590708F4AC017D0112960D90BC914F
:103A0000A02DB3CF8091290790912A078815990599
:103A1000E1F446175707C8F480910C0190910D010D
:103A2000009741F48DB79EB740911001509111015C
:103A3000841B950BE817F907C8F4F0932A07E09365
:103A40002907F901718360830FC0CB010E94461BD7
:103A50007C01009759F0A801BE010E94571DCE01BC
:103A60000E94DB1BC70104C0CE0102C080E090E0D1
:103A7000CDB7DEB7EEE00C94F11E81E090E0F89453
:103A80000C94171F9111089581568A5108F48052A1
:103A900085580895FB01DC0104C08D9101908019C7
:103AA00021F441505040C8F7881B990B0895FB0141
:103AB000DC0102C001900D9241505040D8F70895AA
:103AC000DC0101C06D9341505040E0F70895FB01C7
:103AD000DC018D91019080190110D9F3990B0895A3
:103AE000FB01DC0101900D920020E1F70895A0E0B8
:103AF000B0E0EDE7FDE10C94D11E5C016B017A01B1
:103B00006115710519F0FB0191838083E114F104C3
:103B100029F0C7010297839708F0F1C0E5012196CB
:103B2000F5011081812F90E00E94881E892B11F0F1
:103B30005E01F4CF1D3229F42196F501118101E0D7
:103B400007C01B3221F4E5012296F501118100E046
:103B5000E114F10459F1F0E1EF16F10461F41033CE
:103B6000E1F488818F7D883569F51981229602609C
:103B700070E1E72EF12C88E0E816F10439F12CF41D
:103B8000F2E0EF16F104C9F12AC08AE0E816F10468
:103B900079F0E0E1EE16F10411F550E1E52EF12C9B
:103BA000812C912CA12C68E0B62E2CC01033C9F2C8
:103BB0003AE0E32EF12C4CEC842E982CA82C4CE00F
:103BC000B42E20C010E3E114F104A9F698E0E92E28
:103BD000F12C812C912CA12C20E1B22E13C060E09D
:103BE00070E080E090E897010F2C000C440B550B1F
:103BF0000E94A41E49015A0105C0812C912CA12CC0
:103C000080E4B82E60E020E030E0A90127010F2C0D
:103C1000000C660877081E01E0EDE10FEA3060F065
:103C20008FEB810F8A3110F4E9EC05C08FE9810F29
:103C30008A3128F5E9EAE10F8E2F90E08E159F0575
:103C4000F4F467FD18C082169306A406B50690F03A
:103C5000C301B2010E94941E9B01AC012E0F311DC5
:103C6000411D511D213031054105F0E85F0710F479
:103C700061E001C06FEF2196F1011081CCCF802F60
:103C80008170C114D10471F0662329F02197F601E7
:103C9000D183C08307C001FF19C02297F601D183E9
:103CA000C08314C067FF12C0811105C02FEF3FEF22
:103CB0004FEF5FE704C020E030E040E050E882E2F0
:103CC00090E090932E0780932D0716C0882341F033
:103CD00050954095309521953F4F4F4F5F4F0CC009
:103CE00057FF0AC082E290E090932E0780932D0741
:103CF0002FEF3FEF4FEF5FE7B901CA0104C060E06B
:103D000070E080E090E0CDB7DEB7E2E10C94ED1E0C
:103D100091110C94911E803219F089508550C8F78A
:103D20000895992788270895DB018F939F930E9418
:103D3000C61EBF91AF91A29F800D911DA39F900DB4
:103D4000B29F900D11240895A1E21A2EAA1BBB1B4D
:103D5000FD010DC0AA1FBB1FEE1FFF1FA217B30757
:103D6000E407F50720F0A21BB30BE40BF50B661F6D
:103D7000771F881F991F1A9469F760957095809531
:103D800090959B01AC01BD01CF0108950E94081FD1
:103D9000A59F900DB49F900DA49F800D911D11249F
:103DA00008952F923F924F925F926F927F928F92DF
:103DB0009F92AF92BF92CF92DF92EF92FF920F93BA
:103DC0001F93CF93DF93CDB7DEB7CA1BDB0B0FB6C4
:103DD000F894DEBF0FBECDBF09942A883988488881
:103DE0005F846E847D848C849B84AA84B984C88417
:103DF000DF80EE80FD800C811B81AA81B981CE0F0E
:103E0000D11D0FB6F894DEBF0FBECDBFED010895F2
:103E1000A29FB001B39FC001A39F700D811D11240B
:103E2000911DB29F700D811D1124911D089511E007
:103E3000C2E4D1E004C0FE010E94401B2196C334BD
:083E4000D107C9F7F894FFCF88
:103E4800FFFFFFFF00E100000000000000002F0757
:103E580080000100000000000000F508C508880186
:103E68009908BD08A9089A0800000000A50D140EBD
:103E7800970EBB0DC60D9B0EB90E000000002A055B
:103E8800BB0488016D018A042304D0037701000074
:103E980001000200030004000500060007000800F6
:103EA80009000A000B000C000D000E000F001000A6
:103EB8001100120013001400150016001700180056
:103EC80019001A001B001C001D001E001F00200006
:103ED80021002200230024002500260027002800B6
:103EE80029002A002B002C002D002E002F00300066
:103EF8003100320033003400350036003700380016
:103F080039003A003B003C003D003E003F004000C5
:103F18004100420043004400450046004700480075
:103F280049004A004B004C004D004E004F00500025
:103F380051005200530054005500560057005800D5
:103F480059005A005B005C005D005E005F00600085
:103F58006100620063006400650066006700680035
:103F680068006A006B006C006D006E006F007000E6
:103F78007100720073007400750076007700780095
:103F880079007A007B007C007D007E007F007F0046
:103F98007F007F007F0000C180810000004C6F6BB4
:103FA8006920456E67696E656572696E67202D20A8
:103FB8004F6472657269722076312E302E30002D72
:103FC8002D2D2D2D2D2D2D2D2D2D2D2D2D2D2D2D19
:103FD8002D2D2D2D2D2D2D2D2D2D2D2D2D2D2D2D09
:103FE8002D2D2D2D2D2D00496E697469616C697315
:103FF800696E672074686520424C45206D6F647552
:104008006C653A2000436F756C646E27742066698E
:104018006E6420426C756566727569742C206D61DA
:104028006B652073757265206974277320696E202B
:10403800436F4D6D616E44206D6F6465202620636B
:104048006865636B20776972696E673F004F4B2123
:1040580000506572666F726D696E672061206661D7
:1040680063746F72792072657365743A2000436FC8
:10407800756C646E277420666163746F7279207240
:10408800657365740052657175657374696E672030
:10409800426C7565667275697420696E666F3A0060
:1040A8004F4B004552524F52004661696C6564207F
:1040B800746F2073657420646576696365206E612A
:1040C8006D6500496E697469616C6973696E672012
:1040D800746865204D4944493A2000456E61626C18
:1040E80065204D4944493A2000302E372E30004390
:1040F8006F756C64206E6F7420656E61626C6520EC
:104108004D4944490046696E697368656420736562
:104118007475700041542B424C45554152545258C5
:10412800005B52656365697665645D20004E554C99
:104138004C0054455354005B526563696576656469
:104148005D205445535420434F4D4D414E44005239
:104158006573706F6E7365204D6573736167650075
:104168005B53656E64696E675D200041542B424C59
:10417800455541525454583D004661696C65642068
:10418800746F2073656E643F004D50523132312098
:104198006E6F7420666F756E642C20636865636B40
:1041A80020776972696E673F000D0A4F4B0D0A0050
:1041B8002B2B2B005B4D4944492000205D200064D7
:1041C8006973636F6E6E65637465640020436F6E18
:1041D8006E65637465642053756363657366756C97
:1041E8006C79004300435F534841525000445F5389
:1041F800484152500045004600465F5348415250DE
:10420800004700475F5348415250004100415F5307
:08421800484152500042000031
:00000001FF
